:020000040000FA
:100000000C94A3010C947D130C9456130C94CB0107
:100010000C94CB010C94CB010C94A4130C94CB0145
:100020000C94CB010C94CB010C94CB010C94BB131E
:100030000C94CB010C94CB010C94CB010C94CB0110
:100040000C940C130C94CB010C94DA120C94B41293
:100050000C94CB010C94CB010C94CB010C94CB01F0
:100060000C94CB010C94CB0100407A10F35A00A001
:10007000724E18090010A5D4E80000E87648170071
:1000800000E40B54020000CA9A3B000000E1F505B1
:10009000000080969800000040420F000000A086FB
:1000A00001000000102700000000E803000000002D
:1000B0006400000000000A000000000001000000D1
:1000C00000002C76D888DC674F0823DFC1DFAE59EB
:1000D000E1B1B796E5E3E453C63AE651997696E87E
:1000E000E6C28426EB898C9B62ED407C6FFCEFBC02
:1000F0009C9F40F2BAA56FA5F490055A2AF75C932D
:100100006B6CF9676DC11BFCE0E40D47FEF520E662
:10011000B500D0ED902E0300943577050080841E45
:10012000080000204E0A000000C80C333333330FA0
:10013000986E12831141EF8D2114893BE65516CF3D
:10014000FEE6DB18D1844B381BF77C1D901DA4BB49
:10015000E424203284725E228100C9F124ECA1E5FE
:100160003D274E6F20727461204C4F524100522D3A
:1001700046616C6C6F002043004572726F72206D97
:10018000696469656E646F20736F6E64613A200004
:100190004D696469656E646F20736F6E64612033AE
:1001A0003A20004572726F72206D696469656E64F1
:1001B0006F20736F6E64613A20004D696469656EEB
:1001C000646F20736F6E646120323A200045727252
:1001D0006F72206D696469656E646F20736F6E6401
:1001E000613A20004D696469656E646F20736F6EBB
:1001F000646120313A2000727404927404489404BB
:1002000078C40C00000000230026002900005EBC1A
:10021000E2613FDD83C29C7E20A3FD1F41009D2340
:10022000BE46DB65F88C11AF32CA57E97400000096
:1002300000240027002A0000000000250028002BD1
:10024000000404040404040404020202020202037F
:100250000303030303010204081020408001020489
:10026000081020010204081020000000080002010C
:100270000000030407000000000000000045727247
:100280006F722073656E736F723100535F31206936
:100290006E74656E746F202320004572726F722039
:1002A00073656E736F723200535F3220696E7465CE
:1002B0006E746F202320004572726F722073656E1A
:1002C000736F723300535F3320696E74656E746FA1
:1002D000202320004572726F7220696E6963696124
:1002E0006C697A616E646F204C6F52610045727266
:1002F0006F7220696E696369616C697A616E646F9F
:1003000020736F6E64612033004572726F722069D2
:100310006E696369616C697A616E646F20736F6E78
:1003200064612032004572726F7220696E69636980
:10033000616C697A616E646F20736F6E64612031E5
:10034000000029155D1811241FBECFEFD8E0DEBFD5
:10035000CDBF12E0A0E0B1E0EAE8F0E402C0059011
:100360000D92AE30B107D9F724E0AEE0B2E001C0A3
:100370001D92A637B207E1F711E0C2EAD1E004C04E
:100380002197FE010E942C1EC13AD107C9F70E9495
:10039000D2150C9438200C940000E82FF0E0EE0FFA
:1003A000FF1FE050FF4F71836083813039F08091EF
:1003B0006900836080936900E89A089580916900DC
:1003C0008C6080936900E99A0895AF92BF92CF92B2
:1003D000DF92EF92FF920F931F93CF93DF936C0105
:1003E0007B018B01040F151FEB015E01AE18BF08E6
:1003F000C017D10759F06991D601ED91FC91019098
:10040000F081E02DC6010995892B79F7C501DF91AF
:10041000CF911F910F91FF90EF90DF90CF90BF9001
:10042000AF900895FC01538D448D252F30E0842F2B
:1004300090E0821B930B541710F0CF96089501970C
:100440000895FC01918D828D981761F0A28DAE0FF9
:10045000BF2FB11D5D968C91928D9F5F9F73928F80
:1004600090E008958FEF9FEF0895FC01918D828DAC
:10047000981731F0828DE80FF11D858D90E0089579
:100480008FEF9FEF0895FC01918D228D892F90E0D1
:10049000805C9F4F821B91098F73992708958DE38C
:1004A00092E00E94430221E0892B09F420E0822F90
:1004B000089580E090E0892B29F00E944F0281117D
:1004C0000C9400000895FC01A48DA80FB92FB11D54
:1004D000A35ABF4F2C91848D90E001968F7399277A
:1004E000848FA689B7892C93A089B1898C91837058
:1004F00080648C93938D848D981306C00288F38951
:10050000E02D80818F7D80830895EF92FF920F937D
:100510001F93CF93DF93EC0181E0888F9B8D8C8DAF
:1005200098131AC0E889F989808185FF15C09FB7A3
:10053000F894EE89FF896083E889F9898081837066
:10054000806480839FBF81E090E0DF91CF911F9115
:100550000F91FF90EF900895F62E0B8D10E00F5F36
:100560001F4F0F731127E02E8C8D8E110CC00FB60C
:1005700007FCFACFE889F989808185FFF5CFCE01A4
:100580000E946302F1CFEB8DEC0FFD2FF11DE35ABA
:10059000FF4FF0829FB7F8940B8FEA89FB89808127
:1005A0008062CFCF0F931F93CF93DF938C01D0E066
:1005B000C0E0F801EC0FFD1F6491662341F08DE36C
:1005C00092E00E948502892B11F02196F2CFCE0194
:1005D000DF91CF911F910F910895CF93DF93EC019D
:1005E000888D8823B9F0AA89BB89E889F9898C911B
:1005F00085FD03C0808186FD0DC00FB607FCF7CFD7
:100600008C9185FFF2CF808185FFEDCFCE010E94D6
:100610006302E9CFDF91CF910895833081F028F410
:10062000813099F08230A9F008958730A9F08830A0
:10063000C9F08430B1F4809180008F7D03C0809137
:1006400080008F7780938000089584B58F7784BD74
:10065000089584B58F7DFBCF8091B0008F77809314
:10066000B00008958091B0008F7DF9CF1F93CF9394
:10067000DF93282F30E0F901E759FD4F8491F9010C
:10068000EB5AFD4FD491F901EF5BFD4FC491CC23A0
:10069000A9F0162F81110E940D03EC2FF0E0EE0F50
:1006A000FF1FE95CFD4FA591B4918FB7F894EC91D1
:1006B000111108C0D095DE23DC938FBFDF91CF915D
:1006C0001F910895DE2BF8CFCF93DF9390E0FC01CC
:1006D000EB5AFD4F24918F5B9D4FFC018491882341
:1006E000D1F090E0880F991FFC01E35DFD4FA591CB
:1006F000B491FC01E95CFD4FC591D49161110EC02C
:100700009FB7F8948C91E22FE0958E238C932881EB
:10071000E223E8839FBFDF91CF9108958FB7F894CC
:10072000EC91E22BEC938FBFF6CF3FB7F89480911A
:100730001D0290911E02A0911F02B091200226B5C9
:10074000A89B05C02F3F19F00196A11DB11D3FBF09
:10075000BA2FA92F982F8827BC01CD01620F711DD8
:10076000811D911D42E0660F771F881F991F4A95D2
:10077000D1F708958F929F92AF92BF92CF92DF925E
:10078000EF92FF926B017C010E9495034B015C018B
:10079000C114D104E104F104B9F00E949503681971
:1007A00079098A099B09683E73408105910580F3A8
:1007B00021E0C21AD108E108F10888EE880E83E032
:1007C000981EA11CB11CE4CFFF90EF90DF90CF905A
:1007D000BF90AF909F908F9008952FB7F89460913D
:1007E000190270911A0280911B0290911C022FBF76
:1007F000089508954115510529F4EAE7F0E0808154
:100800008F7780836A307105B9F0CB01880F991F0B
:10081000880F991F807267706860682B88E10FB637
:10082000F894A895809360000FBE60936000E0E6A6
:10083000F0E0808180648083232BD9F483B7817FAB
:10084000846083BFF89483B7816083BF85B7806677
:1008500085BF8F7D85BF7894889583B78E7F83BF52
:100860007894452B29F4EAE7F0E080818068808362
:10087000089583B7817F846083BFF89483B78160D4
:1008800083BF7894889583B78E7F83BF7894E9CFB0
:10089000DC0180E0615090F09D919827E92FEF7086
:1008A000F0E0E35FFD4F2491E92FE295EF70F0E077
:1008B000E35EFD4FE491822F8E27ECCF0895DC019B
:1008C0002C911196ED91FC91F8948181822B81837A
:1008D0009281322F30959323928387E090E00197A5
:1008E000F1F781818323818383E290E00197F1F71F
:1008F00090817894EFECF0E03197F1F7922381E06A
:1009000009F480E00895FC0190810180F281E02DDE
:10091000292F209560FF14C0F8948281822382835E
:100920008181892B8183A3E2B0E01197F1F7828165
:10093000982B9283789487ED90E00197F1F70895D2
:10094000F8948281822382838181892B8183AFEF16
:10095000B0E01197F1F78281982B928378948FE021
:1009600090E0EBCFDF92EF92FF920F931F93CF9324
:10097000DF93EC01D62EE42E08E010E0FF24F39480
:1009800061E08D2D8F2109F460E0CE010E94830487
:10099000FF0C01501109A1F7E11010C0F894E98192
:1009A000FA8191818881809589238183E981FA8107
:1009B000928188818095892382837894DF91CF9179
:1009C0001F910F91FF90EF90DF900895EF92FF92AB
:1009D0000F931F93CF93DF938C017B0140E065E57C
:1009E0000E94B204E70188E0E80EF11C699140E042
:1009F000C8010E94B204CE15DF05C1F7DF91CF9187
:100A00001F910F91FF90EF900895FC01908101805C
:100A1000F281E02DF8948181292F20958223818312
:100A200078943DE743E050E0315029F1DA01119725
:100A3000F1F780818923C1F3F89482818223828334
:100A40008181892B81837894ABE7B7E01197F1F727
:100A5000F894818182238183A3E1B1E01197F1F7BA
:100A60008081982381E009F080E07894E3E6F6E065
:100A70003197F1F7089580E008958F929F92AF9299
:100A8000BF92CF92DF92EF92FF92CF93DF93EC0170
:100A90008E819F810E94050540E06CEC8E819F81D4
:100AA0000E94B204488164E48E819F810E94B20456
:100AB0008A81882371F1E981E9508EEEC82E82E0A7
:100AC000D82EE33038F4F0E0EE0FFF1FE25EFE4F69
:100AD000C080D1808B81882339F18881811124C025
:100AE0000E94ED034B015C010D2C000CEE08FF0889
:100AF0008E819F810E945F04813059F00E94ED0336
:100B00006C197D098E099F09681579058A059B0571
:100B100078F3DF91CF91FF90EF90DF90CF90BF906F
:100B2000AF909F908F900895B601DD0C880B990BC4
:100B3000DF91CF91FF90EF90DF90CF90BF90AF907B
:100B40009F908F900C94BA036F927F928F929F9296
:100B5000AF92BF92CF92DF92EF92FF920F931F93CB
:100B6000CF93DF93EC017B018A018E819F810E94EC
:100B70000505811102C090E037C0B7018E819F81C9
:100B80000E94E60440E06EEB8E819F810E94B204D9
:100B90007801680189E0C80ED11CAE80BF8088E072
:100BA000882E912C712C66246394C5010E945F04E9
:100BB00081117628660CE1E08E1A9108B1F7F701F1
:100BC00071927F01EC15FD0541F78E819F810E9496
:100BD0000505813081F668E0C8010E94480491E073
:100BE000F80120852813C7CF892FDF91CF911F915E
:100BF0000F91FF90EF90DF90CF90BF90AF909F90BC
:100C00008F907F906F9008950F931F93CF93DF93F2
:100C1000CDB7DEB729970FB6F894DEBF0FBECDBFB4
:100C20008B01AE014F5F5F4F0E94A405811105C08B
:100C300060E070E08EEF92EC3CC06A8170E0762F4D
:100C40006627770F770F770F298148E0249F90015F
:100C50001124262B372BF80180818031D1F468854F
:100C600070E08F81AB01481B5109CA019695982FFE
:100C70008827979587950E94041ECB014097B9015C
:100C800053E0660F771F5A95E1F760789C01260FB5
:100C9000371F213854EE35075CF2B901330F880B4A
:100CA000990B0E949F1B20E030E040E05CE30E9433
:100CB000FE1B29960FB6F894DEBF0FBECDBFDF91A5
:100CC000CF911F910F910895CF93DF93CDB7DEB7EA
:100CD00029970FB6F894DEBF0FBECDBFFB01208170
:100CE000203199F0AE014F5F5F4F0E94A405882329
:100CF00031F08D818F33A9F020F48F31A1F080E0A5
:100D000007C08F3521F08F37D1F78CE001C08BE021
:100D100029960FB6F894DEBF0FBECDBFDF91CF91FD
:100D200008958AE0F5CF89E0F3CF8BEF0895CF9354
:100D3000DF93FC01228133812230310569F0EC011F
:100D4000678D858D0E94360360E08C8D0E9436038E
:100D500082E090E09B838A83DF91CF910895FF9298
:100D60000F931F93CF93DF93EC01162FF42E0FB741
:100D7000F894898D9A8DDC01ED91FC910088F189C0
:100D8000E02D099560E08B8D0E943603898D9A8D48
:100D9000612F6068DC01ED91FC910190F081E02D04
:100DA0000995182F898D9A8DDC01ED91FC910190A8
:100DB000F081E02D6F2D099561E08B8D0E94360347
:100DC000898D9A8DDC01ED91FC910288F389E02DEB
:100DD00009950FBF812FDF91CF911F910F91FF9048
:100DE00008950F931F93CF938C01C62F65317CF02C
:100DF00047E06DE40E94AF06C3504BEF4C0F4068D4
:100E000069E0C801CF911F910F910C94AF0644E0A7
:100E10006DE40E94AF06F1CFCF93DF93EC018A819E
:100E20009B81059771F047E061E0CE010E94AF061B
:100E300040E860E4CE010E94AF0685E090E09B832D
:100E40008A838A819B810597E1F38E89DF91CF9117
:100E50000895CF93DF93FC01228133812130310546
:100E600049F0EC0140E061E00E94AF0681E090E0D3
:100E70009B838A8381E0DF91CF910895CF93DF93A5
:100E8000FC01228133812230310549F0EC0141E03F
:100E900061E00E94AF0682E090E09B838A83DF914D
:100EA000CF910895BF92CF92DF92EF92FF920F936E
:100EB0001F93CF93DF934C3F60F0E12C8E2DDF9199
:100EC000CF911F910F91FF90EF90DF90CF90BF9047
:100ED0000895142F072FF62EEC01E881F981048480
:100EE000F585E02D0995CE010E943E07E881F98144
:100EF0000288F389E02DCE010995E82E8823E9F2D6
:100F000040E06DE0CE010E94AF064A8560E0CE0170
:100F10000E94AF064B8560E0CE010E94AF064C8573
:100F200060E0CE010E94AF064D8560E0CE010E94D8
:100F3000AF06BFB6F894898D9A8DDC01ED91FC91D6
:100F40000088F189E02D099560E08B8D0E943603C1
:100F5000898D9A8DDC01ED91FC910190F081E02D5D
:100F600060E80995CF2CD02E012F015068F0898DB3
:100F70009A8DF60161916F01DC01ED91FC91019078
:100F8000F081E02D0995F1CF61E08B8D0E94360351
:100F9000898D9A8DDC01ED91FC910288F389E02D19
:100FA0000995BFBE44E0410F62E2CE010E94AF0648
:100FB0008A819B81039709F481CF43E061E0CE01F0
:100FC0000E94AF0640E460E4CE010E94AF0683E0D9
:100FD00090E09B838A8372CFCF93DF93FC012281C1
:100FE000338123303105C9F0EC018281938104976C
:100FF00071F045E061E0CF010E94AF0640E060E49F
:10100000CE010E94AF0684E090E09B838A83C15E9C
:10101000DE4F8881DF91CF91089580E0FBCF0F9361
:101020001F93CF93DF93EC01162F0FB7F894898DA0
:101030009A8DDC01ED91FC910088F189E02D0995F4
:1010400060E08B8D0E943603898D9A8DDC01ED91D5
:10105000FC910190F081E02D612F0995898D9A8D89
:10106000DC01ED91FC910190F081E02D60E00995AB
:10107000182F61E08B8D0E943603898D9A8DDC01DB
:10108000ED91FC910288F389E02D09950FBF812F26
:10109000DF91CF911F910F910895CF92DF92EF9240
:1010A000FF921F93CF93DF93EC0162E10E940F0840
:1010B000182F6CE1CE010E940F082A813B81243059
:1010C000310529F5829586958695837091E089276B
:1010D00080FBEE24E0F8F12C812F807AE82AEF28BB
:1010E000B1F0888999890196998B888B4FEF62E1DD
:1010F000CE010E94AF064FEF62E1CE01DF91CF91AA
:101100001F91FF90EF90DF90CF900C94AF068A81F3
:101110009B81049711F416FD0FC08A819B81039770
:1011200011F413FDBFC08A819B810597F9F612FF68
:10113000DDCF11701E8BA1C063E1CE010E940F08AC
:10114000F82E60E1CE010E940F08482F6DE0CE011D
:101150000E94AF06EFB6F894898D9A8DDC01ED916F
:10116000FC910088F189E02D099560E08B8D0E944B
:101170003603898D9A8DDC01ED91FC910190F0810F
:10118000E02D60E009956E01B0E2CB0ED11C1F2D61
:10119000115070F0898D9A8DDC01ED91FC910190D8
:1011A000F081E02D60E00995F60181936F01F0CFA9
:1011B00061E08B8D0E943603898D9A8DDC01ED9163
:1011C000FC910288F389E02D0995EFBEFF8E4FEF69
:1011D00062E1CE010E94AF0669E1CE010E940F08D4
:1011E0007E01BFEDEB1ABEEFFB0A87FD8D5F859593
:1011F0008595F70180836AE1CE010E940F0890E097
:101200009F878E87D7012C918E859F8527FF39C0B8
:10121000820F911D27FD9A959F878E87FE01E05EC4
:10122000FE4F80818823C9F18E859F858D59910954
:101230009F878E878F8DFE01E15EFE4F8430C8F060
:1012400088A18E8389A18F838AA188878BA18987B2
:101250008D81811107C09E818C81981719F08E8134
:101260008F3F39F48A899B8901969B8B8A8B81E019
:1012700080838081882309F439CFCE010E943E0704
:1012800035CF24E0880F991F2A95E1F76FE070E0D1
:101290000E94041E7F876E87C1CF8E859F85845AEA
:1012A0009109C6CF8C899D8901969D8B8C8BE5CF4A
:1012B0008091160290911702009711F00C944D083E
:1012C00008958091140290911502009711F00C94EA
:1012D0004D0808958091120290911302009711F029
:1012E0000C944D080895CF93DF93EC01898D9A8D6E
:1012F000DC01ED91FC910680F781E02D099561E01C
:101300008B8D0E94640361E08B8D0E94360364E63E
:1013100070E080E090E00E94BA0381E0DF91CF911D
:101320000895089580911002882361F09FB7F89482
:101330002091100280910F02213019F48DBB9FBFC4
:1013400008958FBF0895FC0120859185809110023A
:10135000882361F08FB7F89430911002313049F44E
:101360003DB330930F023DB33DBB8FBF2CBD9DBD40
:10137000089580930F02FACF9FB7F89480910E02E0
:10138000882319F0815080930E0280910E02811102
:1013900005C08CB58F7B8CBD109210029FBF089545
:1013A0008CB58F778CBD08958CB580688CBD089501
:1013B0006EBD00000DB407FEFDCF8EB50895FC0193
:1013C000738362830895FC01778366830895FC012B
:1013D00075836483089508950895FC01848995892F
:1013E0000895FC01828993890895FC01808991897F
:1013F000089580E00895FC01738362830895FC01E1
:10140000828193810895FC01868597850895FC016A
:1014100081850895FC0180850895FC0187810895E8
:10142000FC01868108954095FC0125854223642BAB
:1014300065870895FC0164870895FC01638708951A
:10144000FC0162870895FC0164830895FC016583B3
:1014500008958F929F92AF92BF92CF92DF92EF92B8
:10146000FF92CF93DF93EC016B010E94ED034B01E0
:101470005C01F12CE12C0E94ED03681979098A09BD
:101480009B096C157D058E059F0580F48A819B81E3
:10149000039789F381E0DF91CF91FF90EF90DF9088
:1014A000CF90BF90AF909F908F90089580E0F3CF42
:1014B000FC012281338123303105D1F381E008958D
:1014C0008F929F92AF92BF92CF92DF92EF92FF9254
:1014D000CF93DF93EC016B010E94ED034B015C01A4
:1014E000F12CE12C0E94ED03681979098A099B0906
:1014F0006C157D058E059F05A0F4E881F9810280B9
:10150000F381E02DCE010995882361F3DF91CF911E
:10151000FF90EF90DF90CF90BF90AF909F908F9013
:10152000089580E0F3CFCF93DF93EC01E881F98158
:101530000280F381E02DCE0109958823B9F3DF9174
:10154000CF91089581E0089560E080E10E94360324
:1015500061E08EE00E94360368EE73E080E090E088
:101560000C94BA03BF92CF92DF92EF92FF920F9347
:101570001F93CF93DF93EC01B62EC72E8D8581117B
:1015800005C0CE010E94050581110EC01B861D8677
:101590001C8680E0DF91CF911F910F91FF90EF901B
:1015A000DF90CF90BF90089540E060EFCE010E94A1
:1015B000B20401E0E12CD12C11E0CE010E945F04C5
:1015C000F82ECE010E945F0491E0F91218C081301C
:1015D00099F51134D8F2DB86D11002C081E08D87F5
:1015E0008B81882399F22396EB2DFC2DCF01089651
:1015F00029912193E817F907D9F781E0CBCFEE2D98
:10160000F0E0F8120FC08B851817A0F4DE01AE0FC2
:10161000BF1F13968C91802379F4F12C193008F4B4
:101620001C87D12EEC0FFD1F8381902F909589236D
:1016300083830AC08113F1CFFE01EE0DF11D83817A
:10164000802B8383FF24F3946F2DCE010E948304AB
:101650001F5F000F11F4E39401E087E08E1508F09E
:10166000ACCFB7CFDF92EF92FF920F931F93CF9340
:10167000DF937C018B01D42EDC011696ED91FC9159
:101680001386158614861286118610861782168296
:10169000158214821382C0E0B801F7018681978118
:1016A0000E94B20AD82F882329F0DC1629F0CF5FD8
:1016B000DC1690F7D0E009C067E0C8010E9448043A
:1016C000D80117969C918913F2CF8D2FDF91CF917E
:1016D0001F910F91FF90EF90DF900895CF92DF92CE
:1016E000EF92FF920F931F93CF93DF93CDB7DEB7A7
:1016F00061970FB6F894DEBF0FBECDBF8C017B01A2
:101700000E9464068C3091F4DD24D3948D2D619673
:101710000FB6F894DEBF0FBECDBFDF91CF911F9102
:101720000F91FF90EF90DF90CF900895AE014F5F43
:101730005F4FB701C8010E94A405D82E882331F35A
:10174000F7018081803101F38FE78D83F801868175
:1017500097810E940505B701F801868197810E9453
:10176000E60440E06EE4F801868197810E94B204AD
:1017700040E06B81F801868197810E94B20440E0CD
:101780006C81F801868197810E94B204F701808103
:10179000803139F040E06D81F801868197810E94A7
:1017A000B204F801868197810E940505B701F8010E
:1017B000868197810E94E604F801408168E4868171
:1017C00097810E94B20464E170E080E090E00E94A2
:1017D000BA03F8018081882331F06AE070E080E08C
:1017E00090E00E94BA03F801868197810E94050566
:1017F000F80181818D3018F48CE0818387CF8CE0F3
:101800008183F12CE12CF80184818E151F0409F0ED
:101810000CF47CCF4E2DBE01665F7F4FC8010E9445
:10182000320BF801C180BE01665F7F4FC8010E9484
:1018300064068C1540F4F8018181F8018183FFEF83
:10184000EF1AFF0AE0CFBE01665F7F4FC8010E941A
:101850006406F3CFEF92FF920F931F93CF93DF9322
:10186000CDB7DEB728970FB6F894DEBF0FBECDBF59
:101870008C01DC011696ED91FC9117971386158665
:10188000148612861186108617821682158214829B
:10189000138214961C92149715961C92FF24F394AD
:1018A000BE016F5F7F4FF801868197810E94B20A67
:1018B000882309F463C067E0CE0101960E944804C2
:1018C00098858913EDCFD8018C91811125C016968A
:1018D0008D919C910E940505BE016F5F7F4FF801BD
:1018E000868197810E94E60440E064EBD801169659
:1018F0008D919C910E94B204F801868197810E948B
:101900005F04E82ED80116968D919C910E940505E2
:10191000E11002C0F801F082D8011196EC90BE01EE
:101920006F5F7F4FC8010E9464068E15D0F4F801E6
:101930008181D80111968C93119714968C911497EC
:101940008F5F14968C938981883231F088F48031CE
:1019500019F0823209F0A4CFF80185818F5F858369
:101960009FCFBE016F5F7F4FC8010E946406E1CF29
:101970008B3391F3823409F093CFEECF28960FB6D4
:10198000F894DEBF0FBECDBFDF91CF911F910F91B5
:10199000FF90EF900895FC0101900020E9F7319746
:1019A000AF01481B590BBC018DE392E00C94E5019B
:1019B000CF93DF930E94D202EC018CE891E00E9469
:1019C000CB0C8C0F9D1FDF91CF9108958F929F922A
:1019D000AF92BF920F931F93CF93DF93CDB7DEB734
:1019E000A1970FB6F894DEBF0FBECDBF19A242304B
:1019F00008F44AE08E010F5D1F4F842E912CB12C0C
:101A0000A12CA50194010E942D1DE62FB901CA0148
:101A1000EA30F4F4E05DD801EE938D01232B242B02
:101A2000252B79F790E080E0109719F0CD010E9406
:101A3000CB0CA1960FB6F894DEBF0FBECDBFDF91E1
:101A4000CF911F910F91BF90AF909F908F9008956D
:101A5000E95CE1CFCF93DF93682F70E090E080E006
:101A60004AE00E94E60CEC018CE891E00E94CB0C6D
:101A70008C0F9D1FDF91CF910895CF93DF930E942C
:101A8000CB0CEC018CE891E00E94CB0C8C0F9D1FDD
:101A9000DF91CF9108954F925F926F927F928F92D4
:101AA0009F92AF92BF92CF92DF92EF92FF928130DE
:101AB00009F05FC084EE91E00E94D80C8EE294E0C1
:101AC0000E943D0561E272E08EE294E00E9404060D
:101AD0006B017C0120E030E0A9010E94981B882363
:101AE00039F1A7019601C701B6010E94FF1D8111BE
:101AF0001FC020E030E040E252ECC701B6010E9476
:101B0000981B87FD15C020E030E04AEA52E4C70187
:101B1000B6010E94981B882359F020E030E048EC81
:101B200052E4C701B6010E94FA1D18160CF0B5C0A8
:101B30008DEC91E00E94D20281E00E942A0D81E0AA
:101B400080933C028CE5C82EDD24DA9489E7E82EE8
:101B500084E4F82EC701B601FF90EF90DF90CF909C
:101B6000BF90AF909F908F907F906F905F904F90BD
:101B70000895823009F049C08AEB91E00E94D80CA8
:101B80008AE194E00E943D0569E272E08AE194E016
:101B90000E9404066B017C0120E030E0A9010E9454
:101BA000981B882339F1A7019601C701B6010E944D
:101BB000FF1D81111FC020E030E040E252ECC70160
:101BC000B6010E94981B87FD15C020E030E04AEA6C
:101BD00052E4C701B6010E94981B882359F020E007
:101BE00030E048EC52E4C701B6010E94FA1D181615
:101BF0000CF053C083EA91E00E94D20282E00E947E
:101C00002A0D81E080933B029DCF80E991E00E9404
:101C1000D80C86E094E00E943D0561E372E086E026
:101C200094E00E9404066B017C0120E030E0A901F1
:101C30000E94981B882331F1A7019601C701B601C4
:101C40000E94FF1D81111EC020E030E040E252ECF6
:101C5000C701B6010E94981B87FD14C020E030E048
:101C60004AEA52E4C701B6010E94981B882351F04A
:101C700020E030E048EC52E4C701B6010E94FA1DB2
:101C800018165CF489E791E00E94D20283E00E947A
:101C90002A0D81E080933A0255CF10923C021092B7
:101CA0003B0210923A02A7019601C701B6010E94B9
:101CB000FF1D882349F08FE891E00E94CB0C86E756
:101CC00091E00E94D80C46CF46015701E894B7F83E
:101CD0002FEF3FEF4FE75FE7C501B4010E94FF1D03
:101CE00081110DC02FEF3FEF4FE75FE7C501B40152
:101CF0000E94981B18161CF483E991E0DECF2FEFA9
:101D00003FEF4FE75FE4C701B6010E94FA1D1816C6
:101D10001CF487E991E0D1CF2FEF3FEF4FE75FEC65
:101D2000C701B6010E94981B87FDF3CF20E030E089
:101D3000A901C701B6010E94981B87FF54C06DE23C
:101D40008DE392E00E948502C701B60190582AE017
:101D500037ED43EA5BE30E945F1D2B013C010E94CB
:101D6000CB1D4B015C010E949D1B9B01AC01C3017B
:101D7000B2010E945E1D2B013C014AE0C501B40185
:101D80000E94E60C6EE28DE392E00E94850220E064
:101D900030E040E251E4C301B2010E94FE1B2B017E
:101DA0003C010E94CB1D4B01B12CA12C4AE0C50186
:101DB000B4010E94E60CC501B4010E949D1B9B0169
:101DC000AC01C301B2010E945E1D20E030E040E2A0
:101DD00051E40E94FE1B0E94CB1D90E080E04AE08F
:101DE0000E94E60C6CCFC701B601B1CFFC01808127
:101DF0009181009711F00C94CE1E08950E9414203A
:101E00000F931F93CF93DF93EC0188819981009703
:101E100059F02A813B812617370730F081E0DF91A6
:101E2000CF911F910F9108958B016F5F7F4F0E949B
:101E3000571F009759F0998388831B830A832C814D
:101E40003D81232B59F7FC011082E8CF80E0E7CFDA
:101E5000EF92FF920F931F93CF93DF93611571055C
:101E600041F480E0DF91CF911F910F91FF90EF90AF
:101E7000089541155105B1F07B01EC010C811D81E4
:101E8000040F151FB8010E94000F882351F3288109
:101E900039818C819D81B701820F931F0E9422207E
:101EA0001D830C8381E0DECFFC0101900020E9F767
:101EB0003197AF01481B590BBC018CE694E00C94A0
:101EC000280FFC0144815581608171818CE694E08A
:101ED0000C94280FEF92FF920F931F93CF93DF93F1
:101EE000EC017B018A01BA010E94000F288139812F
:101EF000811114C02115310519F0C9010E94CE1EAF
:101F0000198218821D821C821B821A82CE01DF91E7
:101F1000CF911F910F91FF90EF9008951D830C8337
:101F2000B701C9010E942220F1CFEF92FF920F93D7
:101F30001F93CF93DF9300D0CDB7DEB78C01FC01A8
:101F400011821082138212821582148250E040E0C6
:101F50006EE871E00E946A0FF12CE12CC7010E942B
:101F6000BC1C8F3F51F089831A8241E050E0BE01D2
:101F70006F5F7F4FC8010E94280FFFEFEF1AFF0A23
:101F80008AE0E816F10451F7C8010F900F90DF9135
:101F9000CF911F910F91FF90EF900895EF92FF92D4
:101FA0000F931F93CF93DF93CDB7DEB7A1970FB6F3
:101FB000F894DEBF0FBECDBF7C01CB01BA01F701A3
:101FC0001182108213821282158214828E010F5F99
:101FD0001F4F21E043E00E9461180097C9F0FC0107
:101FE00001900020E9F73197AF01481B590BBC0164
:101FF000C7010E946A0FA1960FB6F894DEBF0FBE0C
:10200000CDBFDF91CF911F910F91FF90EF90089579
:10201000F70180819181009711F00E94CE1EF70197
:10202000118210821582148213821282E4CFCF9221
:10203000DF92EF92FF920F931F93CF93DF93EC0108
:102040007B018A01E881F9810280F381E02D099505
:10205000D82E882329F1E114F104D1F001151105DE
:10206000B9F0CFB6F8948F8D8350990BF801208189
:10207000281719061CF08F8D84508083F801408149
:1020800050E0BE016C5D7F4FC7010E941920CFBE9A
:102090008FB7F894FE01E15EFE4F10821F8E8FBF56
:1020A0008D2DDF91CF911F910F91FF90EF90DF90D9
:1020B000CF900895EF92FF920F931F93CF93DF93EA
:1020C00000D01F92CDB7DEB78C010E947309E82EB5
:1020D00081110CC0E12C8E2D0F900F900F90DF918D
:1020E000CF911F910F91FF90EF900895D8015D96C9
:1020F0008C91823009F496C0FF24F394833051F719
:10210000F801818D928DDC01ED91FC910488F589B7
:10211000E02D6F2D099540E861E0C8010E94AF06EF
:102120006AE070E080E090E00E94BA0361E0C801DC
:102130000E940F08803871F660E0F801858D0E94DA
:102140006403D8015E968C915E978F3F59F480911D
:102150001102843008F0BECF91E0980F90931102E5
:102160005E968C93F801868DE82FF0E0EE0FFF1F4E
:10217000EE5EFD4F118300836AE679E0882349F023
:1021800061E679E0813029F0823009F0A3CF68E57B
:1021900079E08F2D0E94CD0140E06EE0C8010E94E1
:1021A000AF0640E06FE0C8010E94AF06C8010E9480
:1021B0003E0743E050E067EF71E0CE0101960E94D8
:1021C000231949816DE1C8010E94AF064A816EE181
:1021D000C8010E94AF064B8166E2C8010E94AF06AB
:1021E00040E060E2C8010E94AF0648E061E2C80139
:1021F0000E94AF064CE666E0C8010E94AF0640E8C8
:1022000067E0C8010E94AF0640E068E0C8010E9494
:10221000AF06F801E05EFE4F10826DE0C8010E943B
:10222000F10659CFF12C6CCF0F931F93CF93FC0184
:102230008281938140E054E264EF70E08430910544
:10224000C1F040E052E16AE770E08330910589F027
:1022500040E059E06DE370E08230910551F040E4D8
:1022600052E46FE070E0019721F440E854E86EE139
:1022700070E0A481B58186819781009709F466C0DA
:102280008130910509F45EC08230910509F45CC08B
:10229000039709F05BC08CE000E012E12AE730E030
:1022A00090E0401751076207730740F43695279571
:1022B000179507959F5F9630A1F797E021E02927B2
:1022C00030E5119709F430E72695282B232B20873A
:1022D000909591709187CFB7F89480910E028111FB
:1022E00027C0EBE4F2E08491EFE5F2E09491E82F6F
:1022F000F0E0EE0FFF1FE35DFD4FA591B491EC916F
:10230000E92321F461E08AE00E94360361E08AE07B
:102310000E9464038CB580618CBD8CB580648CBDDB
:1023200061E08DE00E94640361E08BE00E94640341
:1023300080910E028F5F80930E02CFBFCF911F91CD
:102340000F91089584E0A8CF88E0A6CF80E0A4CFC5
:102350008F929F92AF92BF92CF92DF92EF92FF92B5
:10236000CF93DF93FC012789308D232BB9F1EC014A
:102370000E94ED034B015C0189E0C82ED12CE12CB9
:10238000F12CE881F9810488F589E02DCE010995C9
:10239000882321F10E94ED03AB01BC0148195909C2
:1023A0006A097B098F89988DB0E0A0E084179507B2
:1023B000A607B707F8F00E94CB18A70196010E9464
:1023C000C41C9B01AC012F5F3F4F4F4F5F4FA4E6F2
:1023D000B0E00E94E31C0E94BA03D3CF81E0DF91FA
:1023E000CF91FF90EF90DF90CF90BF90AF909F90F4
:1023F0008F90089580E0F3CF0F931F93CF93DF93D7
:10240000CDB7DEB7CC56D1400FB6F894DEBF0FBEC5
:10241000CDBF8BE991E00E943D0D009170041091B9
:1024200071040115110509F080C0C450DF4F1882F6
:10243000CC5FD040CE0184509F4F0E943D0D44E6BA
:10244000BE0164507F4F84EE92E00E94520768E81C
:1024500073E184EE92E00E94290A8BEFC459DE4FAB
:102460008883CC56D14068EB7BE084EE92E00E94FA
:10247000600A882309F475C0AE0144595E4F8E018D
:102480000F5F1F4FB80184EE92E00E94171088235F
:1024900009F462C0CA59DE4F19821882C656D1406B
:1024A000C859DE4F19821882C856D140C659DE4F2E
:1024B00019821882CA56D140F80101900020E9F72C
:1024C0003197AF01401B510BB801CE018A599E4F85
:1024D0000E946A0FC659DE4F48815981CA56D140C1
:1024E000CA59DE4F68817981C656D1408DE392E0AA
:1024F0000E94E501CE01805A9E4F0E94950FCE01A9
:10250000805A9E4F0E94F60ECE018A599E4F0E941D
:10251000F60EC459DE4F0FB6F894DEBF0FBECDBF26
:10252000DF91CF911F910F9108950336110510F09F
:1025300003E610E060916C0470916D04A801CE0177
:1025400084509F4F0E942920ECEFF0E0EC0FFD1F1C
:10255000E00FF11F10826ECF8EE691E00E94D80C42
:10256000D8CF82E691E0FACF1F920F920FB60F926A
:1025700011242F933F934F935F936F937F938F9388
:102580009F93AF93BF93EF93FF938DE392E00E94ED
:102590006302FF91EF91BF91AF919F918F917F91D6
:1025A0006F915F914F913F912F910F900FBE0F90C0
:1025B0001F9018951F920F920FB60F9211242F9310
:1025C0008F939F93EF93FF93E0914D02F0914E0212
:1025D0008081E0915302F091540282FD1BC09081F2
:1025E000809156028F5F8F7320915702821741F0BE
:1025F000E0915602F0E0E35CFD4F958F8093560228
:10260000FF91EF919F918F912F910F900FBE0F909F
:102610001F9018958081F4CF1F920F920FB60F92E2
:1026200011242F933F938F939F93AF93BF938091E8
:10263000190290911A02A0911B02B0911C023091D4
:10264000180223E0230F2D3758F50196A11DB11D67
:10265000209318028093190290931A02A0931B02F0
:10266000B0931C0280911D0290911E02A0911F0246
:10267000B09120020196A11DB11D80931D0290937F
:102680001E02A0931F02B0932002BF91AF919F91B1
:102690008F913F912F910F900FBE0F901F90189523
:1026A00026E8230F0296A11DB11DD2CF1F920F92D3
:1026B0000FB60F9211242F933F934F935F936F9315
:1026C0007F938F939F93AF93BF93EF93FF93E0918B
:1026D0000201F09103010995FF91EF91BF91AF9134
:1026E0009F918F917F916F915F914F913F912F912A
:1026F0000F900FBE0F901F9018951F920F920FB65C
:102700000F9211242F933F934F935F936F937F9377
:102710008F939F93AF93BF93EF93FF93E09100014B
:10272000F09101010995FF91EF91BF91AF919F91B8
:102730008F917F916F915F914F913F912F910F906A
:102740000FBE0F901F9018951F920F920FB60F9209
:1027500011248F930FB6F894A8958091600088613A
:1027600080936000109260000FBE8F910F900FBE9B
:102770000F901F9018951F920F920FB60F92112471
:102780002F933F934F935F936F937F938F939F9379
:10279000AF93BF93CF93DF93EF93FF9380910200AA
:1027A00090910300049709F0DEC020911B0030E0F7
:1027B000F901E759FD4F8491F901EB5AFD4FD4918E
:1027C000F901EF5BFD4FC491CC2379F081110E9498
:1027D0000D03EC2FF0E0EE0FFF1FED5FFD4FA59115
:1027E000B491EC91ED2381E009F480E081702091B7
:1027F0001E00982F9227821719F083B18F5F83B93B
:1028000082B18917F1F184B12DE1803508F42BE014
:1028100084B1820F84B992B984B1803A08F46EC051
:1028200086B197B19695879597B986B983B185306A
:1028300028F086B197B1986097B986B984B1805A6B
:1028400084B913B885B1882309F482C088B18F5F39
:1028500088B98C3008F452C086B197B1982F9F7315
:10286000892F86958695887028E0280F281769F0AB
:10287000E82FF0E0E25FFE4F3081931739F08F5F71
:10288000F5CF84B18C5E84B9C7CF80E090E1899F99
:102890009001112486B197B136E0969587953A95C7
:1028A000E1F7482F9595879595958795887098E0DD
:1028B000980F981749F0E82FF0E0E25FFE4F508143
:1028C000451719F08F5FF5CF80E0822B90916D0056
:1028D000911127C080936C0090916C00973020F08C
:1028E00090916C009434E8F015B8809110009091AC
:1028F000110001969093110080931000FF91EF91C9
:10290000DF91CF91BF91AF919F918F917F916F9107
:102910005F914F913F912F910F900FBE0F901F909D
:102920001895E0916D0091E09E0F90936D00F0E09E
:1029300081A790916D0080916C00981738F015B8C0
:1029400081E080B990E080E00E94970618B8D6CF69
:1029500086B197B188339B4089F681E085B918B874
:1029600010926D00CBCF80910200909103000397ED
:1029700029F68091700091E0980F9093700081117A
:1029800013C0E0916E008091FF00E817A8F090E07E
:1029900080E00E94970680911400909115000196A6
:1029A000909315008093140080917000883008F493
:1029B000A5CF10927000A2CFF0E0EF58FF4F6081DA
:1029C00070E080916F0091E0980F90936F0002C0CB
:1029D000759567958A95E2F7617080911C000E9459
:1029E000360380916F008630F8F210926F0080916C
:1029F0006E008F5F80936E00D7CF1F93CF93DF93CE
:102A0000EC01162F60E0812F0E946403612F70E0BB
:102A1000FB01EB5AFD4FE491E883FB01EF5BFD4FB7
:102A2000E491F0E0EE0FFF1FED5FFD4F8591949173
:102A30009A8389831B861D861C861A8619861886AA
:102A40001F821E821D821C821B82DF91CF911F91EB
:102A50000895CF93DF93EDE3F2E01382128288EEC4
:102A600093E0A0E0B0E084839583A683B78388E2F7
:102A700091E09183808385EC90E09587848784EC56
:102A800090E09787868780EC90E0918B808B81EC3B
:102A900090E0938B828B82EC90E0958B848B86EC1C
:102AA00090E0978B868B118E128E138E148ECAED4A
:102AB000D2E01B821A821D821C821F821E828AE340
:102AC00091E09983888380E588871986ECE6F4E0B5
:102AD00011821082138212821582148250E040E02B
:102AE0006EE871E0CF010E946A0F67E08EE594E026
:102AF0000E94FD1468E080E594E00E94FD1469E006
:102B000082E494E00E94FD14EEE2F4E08EE594E0AD
:102B10009783868314821582108299E0918381E0E5
:102B200082838383138A128AEAE1F4E020E534E0A9
:102B30003783268314821582108291838283838354
:102B4000138A128AE6E0F4E022E434E03783268335
:102B5000148215821082918382838383138A128A5E
:102B6000E4EEF2E0138212828FEF84838287838700
:102B700014861586118A108A138A128A158A148A75
:102B8000108E178AD28FC18F9AE0938F24E531E09F
:102B9000318320831092030493E0958F868FDF9119
:102BA000CF910895CF93DF93CDB7DEB72A970FB6B5
:102BB000F894DEBF0FBECDBF789484B5826084BD2B
:102BC00084B5816084BD85B5826085BD85B5816031
:102BD00085BD80916E00816080936E0010928100AF
:102BE000809181008260809381008091810081606A
:102BF000809381008091800081608093800080912B
:102C0000B10084608093B1008091B00081608093B6
:102C1000B00080917A00846080937A0080917A007D
:102C2000826080937A0080917A00816080937A003C
:102C300080917A00806880937A001092C100E091C0
:102C40004D02F0914E0282E08083E0914902F091C2
:102C50004A021082E0914B02F0914C028FEC80838B
:102C600010925502E0915102F091520286E0808369
:102C7000E0914F02F0915002808180618083E09169
:102C80004F02F0915002808188608083E0914F0272
:102C9000F0915002808180688083E0914F02F09132
:102CA000500280818F7D80838DEA91E00E943D0DEE
:102CB00061E080E10E94640361E08EE00E946403B1
:102CC00061E082E00E94640361E085E00E946403A9
:102CD00061E086E00E9464030E94A40A68EC70E050
:102CE00080E090E00E94BA038BE892E00E94D2025A
:102CF00080E00E942A0D8EE294E00E942A0C8091CE
:102D000032048111A2C18DE792E00E94D80C85E2C5
:102D100093E00E94D80C88EA92E00E94D20280E000
:102D20000E942A0D8AE194E00E942A0C80911E04E0
:102D300081119CC18AE992E00E94D80C89E093E05D
:102D40000E94D80C85EC92E00E94D20280E00E94A2
:102D50002A0D86E094E00E942A0C80910A048111D9
:102D600096C187EB92E00E94D80C8DEE92E00E9413
:102D7000D80C61E082E00E9436036AE070E080E0F7
:102D800090E00E94BA0360E082E00E9436036AE0AD
:102D900070E080E090E00E94BA0361E082E00E946F
:102DA00036036AE070E080E090E00E94BA0384EEAF
:102DB00092E00E945A10882309F47AC144EE66E03A
:102DC00084EE92E00E94AF0640EC67E084EE92E071
:102DD0000E94AF0640E068E084EE92E00E94AF06F9
:102DE00081E08093040467E184EE92E00E94F106A2
:102DF0008E010F5F1F4F4EE4E42E50E0C52E50E0D1
:102E0000D52EF12C81E00E944B0D6F837887898746
:102E10009A8780913C02811102C03AE0F32EF3942C
:102E200089E08F1578F7F12C82E00E944B0D2B0181
:102E30003C0180913B02811102C02AE0F22EF39402
:102E400089E08F1588F7F12C83E00E944B0D4B0130
:102E50005C0180913A02811102C09AE0F92EF3944C
:102E600089E08F1588F747E050E068ED71E08CE667
:102E700094E00E946A0FC8010E94950FC8010E9449
:102E8000610FC8010E94F60E80EE91E00E94540F7F
:102E9000E0927C0062E070E080E090E00E94BA0383
:102EA00080917A00806480937A0080917A0086FD18
:102EB000FCCF8091780020917900322F282F032EAB
:102EC000000C440B550B64EB7BE281E190E00E9427
:102ED000C41C253E8CE038074105510524F024EE42
:102EE0003CE040E050E0203F8AE0380741055105D2
:102EF00024F420EF3AE040E050E0205F3A404109FE
:102F00005109A4E6B0E00E94E31C24EF31E040E068
:102F100050E00E94C41CC9014AE0B8010E942C196B
:102F2000F80101900020E9F73197AF01401B510BE8
:102F3000B8018CE694E00E94280F80913C02811138
:102F400011C087EF91E00E94540F4F815885698529
:102F50007A85C8010E94CE0FC8010E94610FC80186
:102F60000E94F60E80913B0281110FC08EEF91E01E
:102F70000E94540FB301A201C8010E94CE0FC801E4
:102F80000E94610FC8010E94F60E80913A028111E1
:102F90000FC085E092E00E94540FB501A401C80162
:102FA0000E94CE0FC8010E94610FC8010E94F60E58
:102FB0008CE092E00E94540F409170045091710493
:102FC00060916C0470916D048DE392E00E94E501C4
:102FD0008CE891E00E94CB0C0E94FC1161E080E142
:102FE0000E94360360E08EE00E94360368EC70E0D9
:102FF00080E090E00E94BA0380E7F82E30E020E005
:1030000050E040E069E070E089E392E00E94FA035A
:1030100064E670E080E090E00E94BA03FA94F11058
:10302000EDCF0E94A40A68EC70E080E090E00E947E
:10303000BA03C114D10409F4E4CE0E944F028823DC
:1030400009F4DFCE0E940000DCCE40E061E272E0D5
:103050008EE294E00E94320B882309F454CE61E2A0
:1030600072E08EE294E00E946E0B55CE40E069E281
:1030700072E08AE194E00E94320B882309F45ACE70
:1030800069E272E08AE194E00E946E0B5BCE40E060
:1030900061E372E086E094E00E94320B882309F439
:1030A00060CE61E372E086E094E00E946E0B61CE38
:1030B00084ED92E00E94D80C9BCE8CE694E00C94B8
:1030C000F60EEF920F931F93CF93DF93E80134E056
:1030D00047FD34E1042E000C550B57FF03C05195FA
:1030E00041955109E32E022F242FAE010E94511960
:1030F000CE01DF91CF911F910F91EF9008958F92A4
:103100009F92AF92BF92CF92DF92EF92FF92CF93B6
:10311000DF93EC01688179818A819B81611571055A
:103120008105910521F464E279ED8BE597E02DE1CD
:1031300033EF41E050E00E94C41C49015A019B0159
:10314000AC01A7EAB1E40E94E31C6B017C01ACEE88
:10315000B4EFA50194010E94F11CC60ED71EE81E13
:10316000F91EF7FE06C081E0C81AD108E10880E820
:10317000F80AC882D982EA82FB82C701B6019F772A
:10318000DF91CF91FF90EF90DF90CF90BF90AF9005
:103190009F908F9008958F929F92AF92BF92CF92FF
:1031A000DF92EF92FF92609104017091050180918E
:1031B000060190910701611571058105910521F4C2
:1031C00064E279ED8BE597E02DE133EF41E050E0EB
:1031D0000E94C41C49015A019B01AC01A7EAB1E459
:1031E0000E94E31C6B017C01ACEEB4EFA5019401DD
:1031F0000E94F11CC60ED71EE81EF91EF7FE06C07F
:1032000081E0C81AD108E10880E8F80AC0920401F8
:10321000D0920501E0920601F0920701C701B601C4
:103220009F77FF90EF90DF90CF90BF90AF909F90EF
:103230008F900895609304017093050180930601B7
:10324000909307010895FB01DC0102C005900D92E7
:1032500041505040D8F70895BB274A3031F49923A4
:1032600022F4BDE2909581959F4F0C943819BB27AD
:10327000FB015527AA27880F991FAA1FA41710F032
:10328000A41B83955051B9F7A05DAA3308F0A95D3E
:10329000A193009779F7B111B1931192CB010C94DE
:1032A000881BA9E0B0E0E7E5F9E10C94FC1C6A0199
:1032B000F22EB02E102FFBE3AF2EA01608F41BE366
:1032C0001F5F012F27E0AE014F5F5F4F0E94B01AD2
:1032D000BC018981982F9970913009F43FC09BE21D
:1032E000E1FC04C09E2D9170E0FC3AC05E2D50714F
:1032F000E82FE87083FF46C084E0911101C083E0AD
:10330000EF2DE81B8F1508F0E0E0D6018E2F20E2AC
:10331000552351F1992329F0D6019C93C6010196BA
:103320006C0196012D5F3F4FE2FE24C08EE4D60172
:103330008C9391E411969C93119712968C93D901DA
:103340008E2F90E281111BC0E20FF32FF11D10822E
:103350008EEF9FEF2996ECE00C94181D9DE2C6CFEE
:1033600090E2C4CF2D9381508111FCCFCE0ED11CA1
:10337000E0E0D0CF8EE6D6018C9391E6DBCF9D9333
:103380008150E0CF482F447082FF3DC084E091110E
:1033900001C083E08F1510F4EF2DE81BD6018E2FAE
:1033A00020E2552309F1992329F0D6019C93C60107
:1033B00001966C0196012D5F3F4FE2FE1BC089E430
:1033C000D6018C938EE411968C93119786E4129615
:1033D0008C93D9018E2F90E2882309F4B5CF9D9369
:1033E0008150FACF2D9381508111FCCFCE0ED11C8C
:1033F000E0E0D9CF89E6D6018C938EE611968C93C6
:10340000119786E6E4CF9B0177FF02C030E020E011
:10341000A1E0B0E0911102C0B0E0A0E0F901319666
:10342000AE0FBF1F8B2C912CBB2009F461C054013F
:10343000EFEFAE1ABE0AAA0DBB1DFA161B0619F055
:1034400014F04F2D4A1B511188C0E3FC59C076017E
:10345000A42FB0E2A1114FC0C40ED11C992309F4CE
:103460005BC040E0D6011196F60190836D015523B3
:1034700009F448C0012F060F9A81582F507184FF1C
:1034800003C0913309F4015010160CF047C0093005
:1034900008F008E0EEE2FE2E5B01A01AB1088501FB
:1034A0009194819491082F3F320729F4D601FC9220
:1034B000F60131966F016217730794F10217130733
:1034C0007CF5DB01A21BB30BAA24A394B12CAC0E98
:1034D000BD1EAA0DBB1D11968C9121503109D6013C
:1034E000119628153905F4F0F60180836D01DBCFC4
:1034F000B12CA12CA0CFF701B1937F01A150AACF8D
:103500009111B0CFD601942F50E302C05D9391503A
:103510009111FCCFC40ED11C40E0ACCF01E0BACF7A
:1035200080E3DBCF6217730731F4963388F4953369
:1035300011F4552369F0F6018083FD01842F90E298
:10354000811108C0A40FB11D1C9290E080E002CF51
:1035500081E3F1CF91938150F3CF911183CF8ACF43
:10356000283008F027E03327DA01990F311D87FD55
:10357000916000966105710539F432602E5F3D93CC
:1035800030E32A95E1F708959F3F30F080387105C8
:10359000610509F03C5F3C5F3D93913008F0806825
:1035A000911DDF93CF931F930F93FF92EF92192FEB
:1035B000987F9695E92F96959695E90FFF27EE53FC
:1035C000FF4F99273327EE24FF24A701E701059039
:1035D0000894079428F4360FE71EF81E491F511D62
:1035E000660F771F881F991F0694A1F7059007940F
:1035F00028F4E70EF81E491F561FC11D770F881FBC
:10360000991F661F0694A1F70590079428F4F80EF9
:10361000491F561FC71FD11D880F991F661F771F8F
:103620000694A1F70590079420F4490F561FC71F71
:10363000D81F990F661F771F881F0694A9F78491DA
:103640001095177041F0D695C79557954795F79403
:10365000E7941A95C1F7E8E6F0E0689415901591A3
:1036600035916591959105907FE27395E118F10A86
:10367000430B560BC90BD009C0F7E10CF11E431FD9
:10368000561FC91FD01D7EF4703311F48A95E6CF02
:10369000E894015030F0080F0AF40027021708F4EC
:1036A000202F2395022F7A3328F079E37D932A95F2
:1036B000E9F710C07D932A9589F60694979567954A
:1036C000379517951794E118F10A430B560BC90B60
:1036D000D00998F023957E9173957A3308F070E3C2
:1036E0007C932013B8F77E9170617D9330F08395C1
:1036F00071E37D9370E32A95E1F71124EF90FF9039
:103700000F911F91CF91DF91992787FD9095089593
:10371000DC01FC01672F71917723E1F7329704C038
:103720007C916D9370836291AE17BF07C8F30895C3
:103730000E94DA1B08F481E00895E89409C097FB21
:103740003EF490958095709561957F4F8F4F9F4F78
:103750009923A9F0F92F96E9BB279395F6958795BC
:1037600077956795B795F111F8CFFAF4BB0F11F47F
:1037700060FF1BC06F5F7F4F8F4F9F4F16C0882326
:1037800011F096E911C0772321F09EE8872F762F5C
:1037900005C0662371F096E8862F70E060E02AF09D
:1037A0009A95660F771F881FDAF7880F9695879589
:1037B00097F90895990F0008550FAA0BE0E8FEEF5E
:1037C00016161706E807F907C0F012161306E407E5
:1037D000F50798F0621B730B840B950B39F40A26DE
:1037E00061F0232B242B252B21F408950A2609F4BC
:1037F000A140A6958FEF811D811D08950E94111C87
:103800000C94821C0E94741C38F00E947B1C20F0D7
:10381000952311F00C946B1C0C94711C11240C94C6
:10382000B61C0E94931C70F3959FC1F3950F50E056
:10383000551F629FF001729FBB27F00DB11D639F62
:10384000AA27F00DB11DAA1F649F6627B00DA11D08
:10385000661F829F2227B00DA11D621F739FB00DAE
:10386000A11D621F839FA00D611D221F749F33271E
:10387000A00D611D231F849F600D211D822F762FB7
:103880006A2F11249F5750409AF0F1F088234AF094
:10389000EE0FFF1FBB1F661F771F881F9150504000
:1038A000A9F79E3F510580F00C946B1C0C94B61C3C
:1038B0005F3FE4F3983ED4F3869577956795B79587
:1038C000F795E7959F5FC1F7FE2B880F911D9695A1
:1038D000879597F9089597F99F6780E870E060E011
:1038E00008959FEF80EC089500240A941616170699
:1038F00018060906089500240A94121613061406E1
:1039000005060895092E0394000C11F4882352F043
:10391000BB0F40F4BF2B11F460FF04C06F5F7F4FFB
:103920008F4F9F4F089557FD9058440F551F59F0E2
:103930005F3F71F04795880F97FB991F61F09F3F9C
:1039400079F087950895121613061406551FF2CFC5
:103950004695F1DF08C0161617061806991FF1CF15
:1039600086957105610508940895E894BB2766273C
:103970007727CB0197F90895F999FECF92BD81BDC4
:10398000F89A992780B50895052E97FB1EF40094A8
:103990000E94DB1C57FD07D00E942D1D07FC03D0A1
:1039A0004EF40C94DB1C50954095309521953F4F7B
:1039B0004F4F5F4F089590958095709561957F4F1B
:1039C0008F4F9F4F08950E944F1DA59F900DB49F4C
:1039D000900DA49F800D911D11240895B7FF0C94A4
:1039E000E31C0E94E31C821B930B08952F923F92CD
:1039F0004F925F926F927F928F929F92AF92BF92FF
:103A0000CF92DF92EF92FF920F931F93CF93DF93AA
:103A1000CDB7DEB7CA1BDB0B0FB6F894DEBF0FBE07
:103A2000CDBF09942A88398848885F846E847D8454
:103A30008C849B84AA84B984C884DF80EE80FD8056
:103A40000C811B81AA81B981CE0FD11D0FB6F894CC
:103A5000DEBF0FBECDBFED010895A1E21A2EAA1B55
:103A6000BB1BFD010DC0AA1FBB1FEE1FFF1FA2172E
:103A7000B307E407F50720F0A21BB30BE40BF50B2B
:103A8000661F771F881F991F1A9469F760957095B4
:103A9000809590959B01AC01BD01CF010895A29F37
:103AA000B001B39FC001A39F700D811D1124911D12
:103AB000B29F700D811D1124911D08955058BB2790
:103AC000AA270E94761D0C94821C0E94741C38F058
:103AD0000E947B1C20F039F49F3F19F426F40C94CB
:103AE000711C0EF4E095E7FB0C946B1CE92F0E940F
:103AF000931C58F3BA17620773078407950720F0E1
:103B000079F4A6F50C94B51C0EF4E0950B2EBA2FA3
:103B1000A02D0B01B90190010C01CA01A0011124D3
:103B2000FF27591B99F0593F50F4503E68F11A167F
:103B3000F040A22F232F342F4427585FF3CF469510
:103B400037952795A795F0405395C9F77EF41F1632
:103B5000BA0B620B730B840BBAF09150A1F0FF0FFC
:103B6000BB1F661F771F881FC2F70EC0BA0F621FE8
:103B7000731F841F48F4879577956795B795F795D8
:103B80009E3F08F0B0CF9395880F08F09927EE0F6D
:103B90009795879508950E949B1C88F09F5798F0F1
:103BA000B92F9927B751B0F0E1F0660F771F881F42
:103BB000991F1AF0BA95C9F714C0B13091F00E945C
:103BC000B51CB1E008950C94B51C672F782F882799
:103BD000B85F39F0B93FCCF3869577956795B39583
:103BE000D9F73EF490958095709561957F4F8F4FF2
:103BF0009F4F08950E94DA1B08F48FEF08950E94EA
:103C0000DA1B880B990B089597FB072E16F4009486
:103C100007D077FD09D00E94181E07FC05D03EF49E
:103C2000909581959F4F0895709561957F4F089568
:103C3000AA1BBB1B51E107C0AA1FBB1FA617B707D2
:103C400010F0A61BB70B881F991F5A95A9F78095EE
:103C50009095BC01CD010895EE0FFF1F0590F491E2
:103C6000E02D09940F931F93CF93DF93823091053A
:103C700010F482E090E0E0917404F091750430E07B
:103C800020E0B0E0A0E0309799F42115310509F467
:103C90004AC0281B390B24303105D8F58A819B8115
:103CA0006115710589F1FB0193838283FE0111C0C7
:103CB000408151810281138148175907E0F048176C
:103CC000590799F4109761F012960C931297139676
:103CD0001C933296CF01DF91CF911F910F910895E0
:103CE0000093740410937504F4CF2115310551F03D
:103CF0004217530738F0A901DB019A01BD01DF012A
:103D0000F801C1CFEF01F9CF90937504809374044B
:103D1000CDCFFE01E20FF31F819391932250310921
:103D200039832883D7CF2091720430917304232BD9
:103D300041F420910A0130910B01309373042093D8
:103D4000720420910801309109012115310541F4D7
:103D50002DB73EB740910C0150910D01241B350B3E
:103D6000E0917204F0917304E217F307A0F42E1BA4
:103D70003F0B2817390778F0AC014E5F5F4F2417CF
:103D8000350748F04E0F5F1F509373044093720441
:103D9000819391939FCFF0E0E0E09CCFCF93DF93AE
:103DA0000097E9F0FC01329713821282A09174040B
:103DB000B0917504ED0130E020E01097A1F420816E
:103DC0003181820F931F2091720430917304281760
:103DD000390709F061C0F0937304E0937204DF9136
:103DE000CF910895EA01CE17DF07E8F54A815B819C
:103DF0009E0141155105B1F7E901FB83EA83499121
:103E00005991C40FD51FEC17FD0761F48081918192
:103E10000296840F951FE90199838883828193819B
:103E20009B838A83F0E0E0E012968D919C9113973A
:103E30000097B9F52D913C911197CD010296820F13
:103E4000931F20917204309173042817390739F6B3
:103E5000309751F51092750410927404B093730466
:103E6000A0937204BCCFD383C28340815181840F5D
:103E7000951FC817D90761F44E5F5F4F88819981FC
:103E8000480F591F518340838A819B81938382838A
:103E90002115310509F0B0CFF0937504E093740457
:103EA0009ECFFD01DC01C0CF13821282D7CFB0E0DC
:103EB000A0E0EDE5FFE10C94F81C8C01009751F4B3
:103EC000CB010E94321E8C01C801CDB7DEB7E0E104
:103ED0000C94141DFC01E60FF71F9C0122503109C0
:103EE000E217F30708F49DC0D901CD91DC91119739
:103EF000C617D70798F0C530D10530F3CE01049727
:103F00008617970708F3C61BD70B2297C193D19347
:103F10006D937C93CF010E94CE1ED6CF5B01AC1A6D
:103F2000BD0A4C018C0E9D1EA0917404B0917504C5
:103F3000512C412CF12CE12C109731F58091720419
:103F4000909173048815990509F05CC046165706D0
:103F500008F058C08091080190910901009741F440
:103F60008DB79EB740910C0150910D01841B950BAC
:103F7000E817F90708F055C0F0937304E093720452
:103F8000F90171836083A0CF8D919C911197129656
:103F90006C90129713967C901397A815B90559F554
:103FA0006C0142E0C40ED11CCA14DB0420F1AC0148
:103FB0004A195B09DA011296159780F062827382C2
:103FC00051834083D9016D937C93E114F10471F026
:103FD000D7011396FC93EE93129776CF22968C0F0F
:103FE0009D1FF90191838083F301EFCFF093750456
:103FF000E093740469CF4816590608F42C017D013A
:10400000D3019ACFCB010E94321E7C01009749F068
:10401000AE01B8010E941920C8010E94CE1E87017E
:1040200053CF10E000E050CF81E090E0F8940C9482
:104030003820FB01DC0102C001900D92415050403C
:10404000D8F70895FB01DC0101900D920020E1F703
:104050000895FB01DC014150504048F001900D9261
:104060000020C9F701C01D9241505040E0F708956B
:1040700011E0C2EAD1E004C0FE010E942C1E21968C
:10408000C33AD107C9F7F894FFCFF903F903010048
:1040900000000000760480000D0E131516191A1C7E
:1040A000232526292A2C32345E00BC00770100002B
:1040B00000008502E5011202ED02430221023502F1
:1040C00000000000D809D409D0091411BC09E7097F
:1040D000E309DF09A30992099109000000005A10C1
:1040E000EC07171052079506930A580A290A600A26
:1040F000A8110C07230A200A1D0A1A0A130A260A05
:10410000100A0D0A0A0A070A030AFF09FB09290710
:10411000F509F109ED090D0A006E616E00696E6620
:10412000006F766600656E7669616E646F206D65FE
:104130006E73616A653A000A4D65646963696F6E02
:104140002064652074656D7065726174757261209C
:1041500056302E302E32202D203320536F6E646166
:1041600073007B226964223A2200222C2274697037
:104170006F223A2254454D505F33222C2262223A5C
:10418000002C227431223A002C227432223A002C64
:08419000227433223A007D0085
:107800000C94343C0C94513C0C94513C0C94513CE1
:107810000C94513C0C94513C0C94513C0C94513CB4
:107820000C94513C0C94513C0C94513C0C94513CA4
:107830000C94513C0C94513C0C94513C0C94513C94
:107840000C94513C0C94513C0C94513C0C94513C84
:107850000C94513C0C94513C0C94513C0C94513C74
:107860000C94513C0C94513C11241FBECFEFD8E036
:10787000DEBFCDBF11E0A0E0B1E0ECE9FFE702C060
:1078800005900D92A230B107D9F712E0A2E0B1E065
:1078900001C01D92AD30B107E1F70E942D3D0C945F
:1078A000CC3F0C94003C982F959595959595959582
:1078B000905D8F708A307CF0282F295A8091C0000B
:1078C00085FFFCCF9093C6008091C00085FFFCCF60
:1078D0002093C6000895282F205DF0CF982F809127
:1078E000C00085FFFCCF9093C6000895EF92FF92F1
:1078F0000F931F93EE24FF2487018091C00087FD22
:1079000017C00894E11CF11C011D111D81E4E8164B
:1079100082E4F8068FE0080780E0180770F3E09132
:107920000401F091050109958091C00087FFE9CF1E
:107930008091C6001F910F91FF90EF9008950E94D3
:10794000763C982F8091C00085FFFCCF9093C600B5
:1079500091362CF490330CF09053892F089597555D
:10796000892F08951F930E949F3C182F0E949F3CCF
:107970001295107F810F1F9108951F93182F882350
:1079800021F00E94763C1150E1F71F9108951F935A
:10799000182F0E94763C803249F0809103018F5F5E
:1079A000809303018530C1F01F9108958091C0003C
:1079B00085FFFCCF84E18093C6008091C00085FFE5
:1079C000FCCF1093C6008091C00085FFFCCF80E102
:1079D0008093C6001F910895E0910401F091050184
:1079E00009951F9108950E94763C803241F0809164
:1079F00003018F5F80930301853081F008958091AA
:107A0000C00085FFFCCF84E18093C6008091C00058
:107A100085FFFCCF80E18093C6000895E0910401CA
:107A2000F09105010995089540E951E08823A1F0FE
:107A30002D9A28EE33E0FA013197F1F721503040CA
:107A4000D1F72D9828EE33E0FA013197F1F7215064
:107A50003040D1F7815061F708953F924F925F9285
:107A60006F927F928F929F92AF92BF92CF92DF924E
:107A7000EF92FF920F931F93CF93DF93000080E16B
:107A80008093C4001092C50088E18093C10086E015
:107A90008093C2005098589A259A81E00E94143D24
:107AA00024E1F22E9EE1E92E85E9D82E0FE0C02ECA
:107AB00010E1B12EAA24A394B1E49B2EA6E58A2E50
:107AC000F2E57F2EE0E26E2E79E4572E63E5462E36
:107AD00050E5352E0E94763C8033B1F18133B9F107
:107AE000803409F46FC0813409F476C0823409F41B
:107AF00085C0853409F488C0803531F1823521F1A3
:107B0000813511F1853509F485C0863509F48DC0BC
:107B1000843609F496C0843709F403C1853709F423
:107B200072C1863709F466C0809103018F5F80932C
:107B30000301853079F6E0910401F0910501099582
:107B40000E94763C803351F60E94F33CC3CF0E94E2
:107B5000763C803249F78091C00085FFFCCFF092DF
:107B6000C6008091C00085FFFCCF9092C600809136
:107B7000C00085FFFCCF8092C6008091C00085FFC9
:107B8000FCCF7092C6008091C00085FFFCCF609250
:107B9000C6008091C00085FFFCCF5092C600809146
:107BA000C00085FFFCCF4092C6008091C00085FFD9
:107BB000FCCF3092C6008091C00085FFFCCFB09210
:107BC000C60088CF0E94763C863808F4BDCF0E945C
:107BD000763C0E94F33C7ECF0E94763C803809F4CC
:107BE0009CC0813809F40BC1823809F43CC1883942
:107BF00009F48FC080E00E94C73C6CCF84E10E94F2
:107C0000BD3C0E94F33C66CF85E00E94BD3C0E94D3
:107C1000F33C60CF0E94763C809306010E94763C44
:107C2000809307010E94F33C55CF0E94763C80333D
:107C300009F41DC183E00E94BD3C80E00E94C73C66
:107C400049CF0E94763C809309020E94763C809343
:107C5000080280910C028E7F80930C020E94763C79
:107C6000853409F415C18091080290910902892B8D
:107C700089F000E010E00E94763CF801E85FFE4FDA
:107C800080830F5F1F4F80910802909109020817AF
:107C9000190788F30E94763C803209F045CF809125
:107CA0000C0280FF01C16091060170910701660F0F
:107CB000771F7093070160930601A0910802B091AD
:107CC00009021097C9F0E8E0F1E09B01AD014E0F09
:107CD0005F1FF999FECF32BD21BD819180BDFA9A17
:107CE000F99A2F5F3F4FE417F50799F76A0F7B1F4B
:107CF00070930701609306018091C00085FFFCCF5F
:107D0000F092C6008091C00085FFFCCFB092C60003
:107D1000E1CE83E00E94C73CDDCE82E00E94C73CFA
:107D2000D9CE0E94763C809309020E94763C8093D3
:107D300008028091060190910701880F991F909386
:107D40000701809306010E94763C853409F4A6C0A1
:107D500080910C028E7F80930C020E94763C8032D0
:107D600009F0B8CE8091C00085FFFCCFF092C6002C
:107D7000609108027091090261157105B9F140E046
:107D800050E080910C02A82FA170B82FB27011C0E2
:107D9000BB2309F45CC0E0910601F0910701319624
:107DA000F0930701E09306014F5F5F4F46175707B7
:107DB000E8F4AA2369F3F999FECF209106013091E6
:107DC000070132BD21BDF89A90B58091C00085FFB2
:107DD000FCCF9093C6002F5F3F4F30930701209355
:107DE00006014F5F5F4F4617570718F38091C00099
:107DF00085FDE5CE8091C00085FFF8CFE0CE81E023
:107E00000E94C73C67CE0E94763C803209F08CCE3F
:107E10008091C00085FFFCCFF092C6008091C00029
:107E200085FFFCCFE092C6008091C00085FFFCCFAB
:107E3000D092C6008091C00085FFFCCFC092C600E2
:107E40008091C00085FFFCCFB092C60043CEE09188
:107E50000601F091070194918091C00085FFFCCF4D
:107E60009093C6009CCF80E10E94C73C33CE0E9415
:107E7000763C0E94763C182F0E94763C112309F430
:107E800083C0113009F484C08FE00E94C73C22CE29
:107E900080910C02816080930C02E5CE80910C02EF
:107EA000816080930C0259CF809107018823880F4D
:107EB000880B8A2180930B02809106019091070123
:107EC000880F991F90930701809306018091080203
:107ED00080FF09C080910802909109020196909359
:107EE000090280930802F894F999FECF1127E091D6
:107EF0000601F0910701C8E0D1E08091080290915D
:107F00000902103091F40091570001700130D9F34B
:107F100003E000935700E89500915700017001308D
:107F2000D9F301E100935700E89509901990009169
:107F3000570001700130D9F301E000935700E89534
:107F40001395103498F011270091570001700130FB
:107F5000D9F305E000935700E895009157000170B0
:107F60000130D9F301E100935700E895329602976A
:107F700009F0C7CF103011F00296E5CF112480919F
:107F8000C00085FFB9CEBCCE8EE10E94C73CA2CD19
:0E7F900085E90E94C73C9ECDF894FFCF80008B
:00000001FF
